{
  "_format": "hh-sol-artifact-1",
  "contractName": "MyEpicGame",
  "sourceName": "contracts/MyEpickGame.sol",
  "abi": [
    {
      "inputs": [
        {
          "internalType": "string[]",
          "name": "characterName",
          "type": "string[]"
        },
        {
          "internalType": "string[]",
          "name": "characterImageUri",
          "type": "string[]"
        },
        {
          "internalType": "uint256[]",
          "name": "characterHp",
          "type": "uint256[]"
        },
        {
          "internalType": "uint256[]",
          "name": "characterAttackDmg",
          "type": "uint256[]"
        },
        {
          "internalType": "string",
          "name": "bossName",
          "type": "string"
        },
        {
          "internalType": "string",
          "name": "bossimageUri",
          "type": "string"
        },
        {
          "internalType": "uint256",
          "name": "bossHp",
          "type": "uint256"
        },
        {
          "internalType": "uint256",
          "name": "boosAttackDamage",
          "type": "uint256"
        }
      ],
      "stateMutability": "nonpayable",
      "type": "constructor"
    },
    {
      "inputs": [],
      "name": "bossinsuffientHp",
      "type": "error"
    },
    {
      "inputs": [],
      "name": "plrinsuffientHp",
      "type": "error"
    },
    {
      "anonymous": false,
      "inputs": [
        {
          "indexed": true,
          "internalType": "address",
          "name": "owner",
          "type": "address"
        },
        {
          "indexed": true,
          "internalType": "address",
          "name": "approved",
          "type": "address"
        },
        {
          "indexed": true,
          "internalType": "uint256",
          "name": "tokenId",
          "type": "uint256"
        }
      ],
      "name": "Approval",
      "type": "event"
    },
    {
      "anonymous": false,
      "inputs": [
        {
          "indexed": true,
          "internalType": "address",
          "name": "owner",
          "type": "address"
        },
        {
          "indexed": true,
          "internalType": "address",
          "name": "operator",
          "type": "address"
        },
        {
          "indexed": false,
          "internalType": "bool",
          "name": "approved",
          "type": "bool"
        }
      ],
      "name": "ApprovalForAll",
      "type": "event"
    },
    {
      "anonymous": false,
      "inputs": [
        {
          "indexed": false,
          "internalType": "address",
          "name": "sender",
          "type": "address"
        },
        {
          "indexed": false,
          "internalType": "uint256",
          "name": "newBossHp",
          "type": "uint256"
        },
        {
          "indexed": false,
          "internalType": "uint256",
          "name": "newPlayerHp",
          "type": "uint256"
        }
      ],
      "name": "AttackComplete",
      "type": "event"
    },
    {
      "anonymous": false,
      "inputs": [
        {
          "indexed": false,
          "internalType": "address",
          "name": "sender",
          "type": "address"
        },
        {
          "indexed": false,
          "internalType": "uint256",
          "name": "tokenId",
          "type": "uint256"
        },
        {
          "indexed": false,
          "internalType": "uint256",
          "name": "characterIndex",
          "type": "uint256"
        }
      ],
      "name": "CharacterNFTMinted",
      "type": "event"
    },
    {
      "anonymous": false,
      "inputs": [
        {
          "indexed": true,
          "internalType": "address",
          "name": "from",
          "type": "address"
        },
        {
          "indexed": true,
          "internalType": "address",
          "name": "to",
          "type": "address"
        },
        {
          "indexed": true,
          "internalType": "uint256",
          "name": "tokenId",
          "type": "uint256"
        }
      ],
      "name": "Transfer",
      "type": "event"
    },
    {
      "inputs": [
        {
          "internalType": "address",
          "name": "to",
          "type": "address"
        },
        {
          "internalType": "uint256",
          "name": "tokenId",
          "type": "uint256"
        }
      ],
      "name": "approve",
      "outputs": [],
      "stateMutability": "nonpayable",
      "type": "function"
    },
    {
      "inputs": [],
      "name": "attackboss",
      "outputs": [],
      "stateMutability": "nonpayable",
      "type": "function"
    },
    {
      "inputs": [
        {
          "internalType": "address",
          "name": "owner",
          "type": "address"
        }
      ],
      "name": "balanceOf",
      "outputs": [
        {
          "internalType": "uint256",
          "name": "",
          "type": "uint256"
        }
      ],
      "stateMutability": "view",
      "type": "function"
    },
    {
      "inputs": [],
      "name": "boss",
      "outputs": [
        {
          "internalType": "string",
          "name": "name",
          "type": "string"
        },
        {
          "internalType": "string",
          "name": "imageUri",
          "type": "string"
        },
        {
          "internalType": "uint256",
          "name": "hp",
          "type": "uint256"
        },
        {
          "internalType": "uint256",
          "name": "maxhp",
          "type": "uint256"
        },
        {
          "internalType": "uint256",
          "name": "attackDamage",
          "type": "uint256"
        }
      ],
      "stateMutability": "view",
      "type": "function"
    },
    {
      "inputs": [],
      "name": "checkIfUserHasNFT",
      "outputs": [
        {
          "components": [
            {
              "internalType": "uint256",
              "name": "characterIndex",
              "type": "uint256"
            },
            {
              "internalType": "string",
              "name": "name",
              "type": "string"
            },
            {
              "internalType": "string",
              "name": "imageUri",
              "type": "string"
            },
            {
              "internalType": "uint256",
              "name": "hp",
              "type": "uint256"
            },
            {
              "internalType": "uint256",
              "name": "maxhp",
              "type": "uint256"
            },
            {
              "internalType": "uint256",
              "name": "attackDamage",
              "type": "uint256"
            }
          ],
          "internalType": "struct MyEpicGame.characterAttribute",
          "name": "",
          "type": "tuple"
        }
      ],
      "stateMutability": "view",
      "type": "function"
    },
    {
      "inputs": [],
      "name": "getAllDefaultcharacter",
      "outputs": [
        {
          "components": [
            {
              "internalType": "uint256",
              "name": "characterIndex",
              "type": "uint256"
            },
            {
              "internalType": "string",
              "name": "name",
              "type": "string"
            },
            {
              "internalType": "string",
              "name": "imageUri",
              "type": "string"
            },
            {
              "internalType": "uint256",
              "name": "hp",
              "type": "uint256"
            },
            {
              "internalType": "uint256",
              "name": "maxhp",
              "type": "uint256"
            },
            {
              "internalType": "uint256",
              "name": "attackDamage",
              "type": "uint256"
            }
          ],
          "internalType": "struct MyEpicGame.characterAttribute[]",
          "name": "",
          "type": "tuple[]"
        }
      ],
      "stateMutability": "view",
      "type": "function"
    },
    {
      "inputs": [
        {
          "internalType": "uint256",
          "name": "tokenId",
          "type": "uint256"
        }
      ],
      "name": "getApproved",
      "outputs": [
        {
          "internalType": "address",
          "name": "",
          "type": "address"
        }
      ],
      "stateMutability": "view",
      "type": "function"
    },
    {
      "inputs": [],
      "name": "getBoss",
      "outputs": [
        {
          "components": [
            {
              "internalType": "string",
              "name": "name",
              "type": "string"
            },
            {
              "internalType": "string",
              "name": "imageUri",
              "type": "string"
            },
            {
              "internalType": "uint256",
              "name": "hp",
              "type": "uint256"
            },
            {
              "internalType": "uint256",
              "name": "maxhp",
              "type": "uint256"
            },
            {
              "internalType": "uint256",
              "name": "attackDamage",
              "type": "uint256"
            }
          ],
          "internalType": "struct MyEpicGame.Big_Boss",
          "name": "",
          "type": "tuple"
        }
      ],
      "stateMutability": "view",
      "type": "function"
    },
    {
      "inputs": [
        {
          "internalType": "address",
          "name": "owner",
          "type": "address"
        },
        {
          "internalType": "address",
          "name": "operator",
          "type": "address"
        }
      ],
      "name": "isApprovedForAll",
      "outputs": [
        {
          "internalType": "bool",
          "name": "",
          "type": "bool"
        }
      ],
      "stateMutability": "view",
      "type": "function"
    },
    {
      "inputs": [
        {
          "internalType": "uint256",
          "name": "_characterIndex",
          "type": "uint256"
        }
      ],
      "name": "mintCharacterNFT",
      "outputs": [],
      "stateMutability": "nonpayable",
      "type": "function"
    },
    {
      "inputs": [],
      "name": "name",
      "outputs": [
        {
          "internalType": "string",
          "name": "",
          "type": "string"
        }
      ],
      "stateMutability": "view",
      "type": "function"
    },
    {
      "inputs": [
        {
          "internalType": "address",
          "name": "",
          "type": "address"
        }
      ],
      "name": "nftholder",
      "outputs": [
        {
          "internalType": "uint256",
          "name": "",
          "type": "uint256"
        }
      ],
      "stateMutability": "view",
      "type": "function"
    },
    {
      "inputs": [
        {
          "internalType": "uint256",
          "name": "",
          "type": "uint256"
        }
      ],
      "name": "nftholderAttribute",
      "outputs": [
        {
          "internalType": "uint256",
          "name": "characterIndex",
          "type": "uint256"
        },
        {
          "internalType": "string",
          "name": "name",
          "type": "string"
        },
        {
          "internalType": "string",
          "name": "imageUri",
          "type": "string"
        },
        {
          "internalType": "uint256",
          "name": "hp",
          "type": "uint256"
        },
        {
          "internalType": "uint256",
          "name": "maxhp",
          "type": "uint256"
        },
        {
          "internalType": "uint256",
          "name": "attackDamage",
          "type": "uint256"
        }
      ],
      "stateMutability": "view",
      "type": "function"
    },
    {
      "inputs": [
        {
          "internalType": "uint256",
          "name": "tokenId",
          "type": "uint256"
        }
      ],
      "name": "ownerOf",
      "outputs": [
        {
          "internalType": "address",
          "name": "",
          "type": "address"
        }
      ],
      "stateMutability": "view",
      "type": "function"
    },
    {
      "inputs": [
        {
          "internalType": "address",
          "name": "from",
          "type": "address"
        },
        {
          "internalType": "address",
          "name": "to",
          "type": "address"
        },
        {
          "internalType": "uint256",
          "name": "tokenId",
          "type": "uint256"
        }
      ],
      "name": "safeTransferFrom",
      "outputs": [],
      "stateMutability": "nonpayable",
      "type": "function"
    },
    {
      "inputs": [
        {
          "internalType": "address",
          "name": "from",
          "type": "address"
        },
        {
          "internalType": "address",
          "name": "to",
          "type": "address"
        },
        {
          "internalType": "uint256",
          "name": "tokenId",
          "type": "uint256"
        },
        {
          "internalType": "bytes",
          "name": "data",
          "type": "bytes"
        }
      ],
      "name": "safeTransferFrom",
      "outputs": [],
      "stateMutability": "nonpayable",
      "type": "function"
    },
    {
      "inputs": [
        {
          "internalType": "address",
          "name": "operator",
          "type": "address"
        },
        {
          "internalType": "bool",
          "name": "approved",
          "type": "bool"
        }
      ],
      "name": "setApprovalForAll",
      "outputs": [],
      "stateMutability": "nonpayable",
      "type": "function"
    },
    {
      "inputs": [
        {
          "internalType": "bytes4",
          "name": "interfaceId",
          "type": "bytes4"
        }
      ],
      "name": "supportsInterface",
      "outputs": [
        {
          "internalType": "bool",
          "name": "",
          "type": "bool"
        }
      ],
      "stateMutability": "view",
      "type": "function"
    },
    {
      "inputs": [],
      "name": "symbol",
      "outputs": [
        {
          "internalType": "string",
          "name": "",
          "type": "string"
        }
      ],
      "stateMutability": "view",
      "type": "function"
    },
    {
      "inputs": [
        {
          "internalType": "uint256",
          "name": "_tokenId",
          "type": "uint256"
        }
      ],
      "name": "tokenURI",
      "outputs": [
        {
          "internalType": "string",
          "name": "",
          "type": "string"
        }
      ],
      "stateMutability": "view",
      "type": "function"
    },
    {
      "inputs": [
        {
          "internalType": "address",
          "name": "from",
          "type": "address"
        },
        {
          "internalType": "address",
          "name": "to",
          "type": "address"
        },
        {
          "internalType": "uint256",
          "name": "tokenId",
          "type": "uint256"
        }
      ],
      "name": "transferFrom",
      "outputs": [],
      "stateMutability": "nonpayable",
      "type": "function"
    }
  ],
  "bytecode": "0x60806040526000600f553480156200001657600080fd5b50604051620059aa380380620059aa83398181016040528101906200003c919062000a8f565b6040518060400160405280600581526020017f4865726f730000000000000000000000000000000000000000000000000000008152506040518060400160405280600481526020017f4865726f000000000000000000000000000000000000000000000000000000008152508160009081620000b9919062000e53565b508060019081620000cb919062000e53565b5050506040518060a0016040528085815260200184815260200183815260200183815260200182815250600760008201518160000190816200010e919062000e53565b50602082015181600101908162000126919062000e53565b50604082015181600201556060820151816003015560808201518160040155905050620002a96040518060600160405280602b81526020016200597f602b913960076000018054620001789062000c4c565b80601f0160208091040260200160405190810160405280929190818152602001828054620001a69062000c4c565b8015620001f75780601f10620001cb57610100808354040283529160200191620001f7565b820191906000526020600020905b815481529060010190602001808311620001d957829003601f168201915b505050505060076002015460076001018054620002149062000c4c565b80601f0160208091040260200160405190810160405280929190818152602001828054620002429062000c4c565b8015620002935780601f10620002675761010080835404028352916020019162000293565b820191906000526020600020905b8154815290600101906020018083116200027557829003601f168201915b50505050506200060460201b62001b6a1760201c565b60005b8851811015620005de57600e6040518060c001604052808381526020018b8481518110620002df57620002de62000f3a565b5b602002602001015181526020018a848151811062000302576200030162000f3a565b5b6020026020010151815260200189848151811062000325576200032462000f3a565b5b6020026020010151815260200189848151811062000348576200034762000f3a565b5b602002602001015181526020018884815181106200036b576200036a62000f3a565b5b60200260200101518152509080600181540180825580915050600190039060005260206000209060060201600090919091909150600082015181600001556020820151816001019081620003c0919062000e53565b506040820151816002019081620003d8919062000e53565b50606082015181600301556080820151816004015560a0820151816005015550506000600e828154811062000412576200041162000f3a565b5b90600052602060002090600602016040518060c001604052908160008201548152602001600182018054620004479062000c4c565b80601f0160208091040260200160405190810160405280929190818152602001828054620004759062000c4c565b8015620004c65780601f106200049a57610100808354040283529160200191620004c6565b820191906000526020600020905b815481529060010190602001808311620004a857829003601f168201915b50505050508152602001600282018054620004e19062000c4c565b80601f01602080910402602001604051908101604052809291908181526020018280546200050f9062000c4c565b8015620005605780601f10620005345761010080835404028352916020019162000560565b820191906000526020600020905b8154815290600101906020018083116200054257829003601f168201915b5050505050815260200160038201548152602001600482015481526020016005820154815250509050620005c76040518060600160405280602581526020016200595a602591398260200151836060015184604001516200060460201b62001b6a1760201c565b508080620005d59062000f98565b915050620002ac565b50620005f66006620006b060201b62001c0c1760201c565b5050505050505050620010aa565b620006aa8484848460405160240162000621949392919062001048565b6040516020818303038152906040527f5d1a971a000000000000000000000000000000000000000000000000000000007bffffffffffffffffffffffffffffffffffffffffffffffffffffffff19166020820180517bffffffffffffffffffffffffffffffffffffffffffffffffffffffff8381831617835250505050620006c660201b60201c565b50505050565b6001816000016000828254019250508190555050565b60008151905060006a636f6e736f6c652e6c6f679050602083016000808483855afa5050505050565b6000604051905090565b600080fd5b600080fd5b600080fd5b6000601f19601f8301169050919050565b7f4e487b7100000000000000000000000000000000000000000000000000000000600052604160045260246000fd5b620007538262000708565b810181811067ffffffffffffffff8211171562000775576200077462000719565b5b80604052505050565b60006200078a620006ef565b905062000798828262000748565b919050565b600067ffffffffffffffff821115620007bb57620007ba62000719565b5b602082029050602081019050919050565b600080fd5b600080fd5b600067ffffffffffffffff821115620007f457620007f362000719565b5b620007ff8262000708565b9050602081019050919050565b60005b838110156200082c5780820151818401526020810190506200080f565b60008484015250505050565b60006200084f6200084984620007d6565b6200077e565b9050828152602081018484840111156200086e576200086d620007d1565b5b6200087b8482856200080c565b509392505050565b600082601f8301126200089b576200089a62000703565b5b8151620008ad84826020860162000838565b91505092915050565b6000620008cd620008c7846200079d565b6200077e565b90508083825260208201905060208402830185811115620008f357620008f2620007cc565b5b835b818110156200094157805167ffffffffffffffff8111156200091c576200091b62000703565b5b8086016200092b898262000883565b85526020850194505050602081019050620008f5565b5050509392505050565b600082601f83011262000963576200096262000703565b5b815162000975848260208601620008b6565b91505092915050565b600067ffffffffffffffff8211156200099c576200099b62000719565b5b602082029050602081019050919050565b6000819050919050565b620009c281620009ad565b8114620009ce57600080fd5b50565b600081519050620009e281620009b7565b92915050565b6000620009ff620009f9846200097e565b6200077e565b9050808382526020820190506020840283018581111562000a255762000a24620007cc565b5b835b8181101562000a52578062000a3d8882620009d1565b84526020840193505060208101905062000a27565b5050509392505050565b600082601f83011262000a745762000a7362000703565b5b815162000a86848260208601620009e8565b91505092915050565b600080600080600080600080610100898b03121562000ab35762000ab2620006f9565b5b600089015167ffffffffffffffff81111562000ad45762000ad3620006fe565b5b62000ae28b828c016200094b565b985050602089015167ffffffffffffffff81111562000b065762000b05620006fe565b5b62000b148b828c016200094b565b975050604089015167ffffffffffffffff81111562000b385762000b37620006fe565b5b62000b468b828c0162000a5c565b965050606089015167ffffffffffffffff81111562000b6a5762000b69620006fe565b5b62000b788b828c0162000a5c565b955050608089015167ffffffffffffffff81111562000b9c5762000b9b620006fe565b5b62000baa8b828c0162000883565b94505060a089015167ffffffffffffffff81111562000bce5762000bcd620006fe565b5b62000bdc8b828c0162000883565b93505060c062000bef8b828c01620009d1565b92505060e062000c028b828c01620009d1565b9150509295985092959890939650565b600081519050919050565b7f4e487b7100000000000000000000000000000000000000000000000000000000600052602260045260246000fd5b6000600282049050600182168062000c6557607f821691505b60208210810362000c7b5762000c7a62000c1d565b5b50919050565b60008190508160005260206000209050919050565b60006020601f8301049050919050565b600082821b905092915050565b60006008830262000ce57fffffffffffffffffffffffffffffffffffffffffffffffffffffffffffffffff8262000ca6565b62000cf1868362000ca6565b95508019841693508086168417925050509392505050565b6000819050919050565b600062000d3462000d2e62000d2884620009ad565b62000d09565b620009ad565b9050919050565b6000819050919050565b62000d508362000d13565b62000d6862000d5f8262000d3b565b84845462000cb3565b825550505050565b600090565b62000d7f62000d70565b62000d8c81848462000d45565b505050565b5b8181101562000db45762000da860008262000d75565b60018101905062000d92565b5050565b601f82111562000e035762000dcd8162000c81565b62000dd88462000c96565b8101602085101562000de8578190505b62000e0062000df78562000c96565b83018262000d91565b50505b505050565b600082821c905092915050565b600062000e286000198460080262000e08565b1980831691505092915050565b600062000e43838362000e15565b9150826002028217905092915050565b62000e5e8262000c12565b67ffffffffffffffff81111562000e7a5762000e7962000719565b5b62000e86825462000c4c565b62000e9382828562000db8565b600060209050601f83116001811462000ecb576000841562000eb6578287015190505b62000ec2858262000e35565b86555062000f32565b601f19841662000edb8662000c81565b60005b8281101562000f055784890151825560018201915060208501945060208101905062000ede565b8683101562000f25578489015162000f21601f89168262000e15565b8355505b6001600288020188555050505b505050505050565b7f4e487b7100000000000000000000000000000000000000000000000000000000600052603260045260246000fd5b7f4e487b7100000000000000000000000000000000000000000000000000000000600052601160045260246000fd5b600062000fa582620009ad565b91507fffffffffffffffffffffffffffffffffffffffffffffffffffffffffffffffff820362000fda5762000fd962000f69565b5b600182019050919050565b600082825260208201905092915050565b6000620010038262000c12565b6200100f818562000fe5565b9350620010218185602086016200080c565b6200102c8162000708565b840191505092915050565b6200104281620009ad565b82525050565b6000608082019050818103600083015262001064818762000ff6565b905081810360208301526200107a818662000ff6565b90506200108b604083018562001037565b81810360608301526200109f818462000ff6565b905095945050505050565b6148a080620010ba6000396000f3fe608060405234801561001057600080fd5b50600436106101375760003560e01c8063895f4c0a116100b8578063c76d9e7d1161007c578063c76d9e7d14610351578063c772af391461036f578063c87b56dd14610391578063c8cf27f4146103c1578063e985e9c5146103df578063f8b81ef71461040f57610137565b8063895f4c0a146102a857806395d89b41146102c6578063a22cb465146102e4578063b2069b3714610300578063b88d4fde1461033557610137565b8063279a0c33116100ff578063279a0c33146101f257806342842e0e146101fc5780636352211e1461021857806370a082311461024857806383eb7c471461027857610137565b806301ffc9a71461013c57806306fdde031461016c578063081812fc1461018a578063095ea7b3146101ba57806323b872dd146101d6575b600080fd5b61015660048036038101906101519190612d48565b61042b565b6040516101639190612d90565b60405180910390f35b61017461050d565b6040516101819190612e3b565b60405180910390f35b6101a4600480360381019061019f9190612e93565b61059f565b6040516101b19190612f01565b60405180910390f35b6101d460048036038101906101cf9190612f48565b6105e5565b005b6101f060048036038101906101eb9190612f88565b6106fc565b005b6101fa61075c565b005b61021660048036038101906102119190612f88565b610b8a565b005b610232600480360381019061022d9190612e93565b610baa565b60405161023f9190612f01565b60405180910390f35b610262600480360381019061025d9190612fdb565b610c5b565b60405161026f9190613017565b60405180910390f35b610292600480360381019061028d9190612fdb565b610d12565b60405161029f9190613017565b60405180910390f35b6102b0610d2a565b6040516102bd91906131dd565b60405180910390f35b6102ce610ed5565b6040516102db9190612e3b565b60405180910390f35b6102fe60048036038101906102f9919061322b565b610f67565b005b61031a60048036038101906103159190612e93565b610f7d565b60405161032c9695949392919061326b565b60405180910390f35b61034f600480360381019061034a919061340f565b6110c9565b005b61035961112b565b604051610366919061350f565b60405180910390f35b610377611287565b604051610388959493929190613531565b60405180910390f35b6103ab60048036038101906103a69190612e93565b6113bb565b6040516103b89190612e3b565b60405180910390f35b6103c96115d6565b6040516103d69190613622565b60405180910390f35b6103f960048036038101906103f49190613644565b6117ae565b6040516104069190612d90565b60405180910390f35b61042960048036038101906104249190612e93565b611842565b005b60007f80ac58cd000000000000000000000000000000000000000000000000000000007bffffffffffffffffffffffffffffffffffffffffffffffffffffffff1916827bffffffffffffffffffffffffffffffffffffffffffffffffffffffff191614806104f657507f5b5e139f000000000000000000000000000000000000000000000000000000007bffffffffffffffffffffffffffffffffffffffffffffffffffffffff1916827bffffffffffffffffffffffffffffffffffffffffffffffffffffffff1916145b80610506575061050582611c22565b5b9050919050565b60606000805461051c906136b3565b80601f0160208091040260200160405190810160405280929190818152602001828054610548906136b3565b80156105955780601f1061056a57610100808354040283529160200191610595565b820191906000526020600020905b81548152906001019060200180831161057857829003601f168201915b5050505050905090565b60006105aa82611c8c565b6004600083815260200190815260200160002060009054906101000a900473ffffffffffffffffffffffffffffffffffffffff169050919050565b60006105f082610baa565b90508073ffffffffffffffffffffffffffffffffffffffff168373ffffffffffffffffffffffffffffffffffffffff1603610660576040517f08c379a000000000000000000000000000000000000000000000000000000000815260040161065790613756565b60405180910390fd5b8073ffffffffffffffffffffffffffffffffffffffff1661067f611cd7565b73ffffffffffffffffffffffffffffffffffffffff1614806106ae57506106ad816106a8611cd7565b6117ae565b5b6106ed576040517f08c379a00000000000000000000000000000000000000000000000000000000081526004016106e4906137e8565b60405180910390fd5b6106f78383611cdf565b505050565b61070d610707611cd7565b82611d98565b61074c576040517f08c379a00000000000000000000000000000000000000000000000000000000081526004016107439061387a565b60405180910390fd5b610757838383611e2d565b505050565b6000600d60003373ffffffffffffffffffffffffffffffffffffffff1673ffffffffffffffffffffffffffffffffffffffff1681526020019081526020016000205490506000600c6000838152602001908152602001600020905061086f604051806080016040528060478152602001614766604791398260010180546107e2906136b3565b80601f016020809104026020016040519081016040528092919081815260200182805461080e906136b3565b801561085b5780601f106108305761010080835404028352916020019161085b565b820191906000526020600020905b81548152906001019060200180831161083e57829003601f168201915b505050505083600301548460050154612093565b6109476040518060400160405280602081526020017f0a20426f737320257320686173202f7720257320487020616e64202573204164815250600760000180546108b8906136b3565b80601f01602080910402602001604051908101604052809291908181526020018280546108e4906136b3565b80156109315780601f1061090657610100808354040283529160200191610931565b820191906000526020600020905b81548152906001019060200180831161091457829003601f168201915b5050505050600760020154600760040154612093565b6000816003015411610985576040517f1dd3244f00000000000000000000000000000000000000000000000000000000815260040160405180910390fd5b6000600760020154116109c4576040517f595c148e00000000000000000000000000000000000000000000000000000000815260040160405180910390fd5b806005015460076002015410156109e5576000600760020181905550610a04565b80600501546007600201546109fa91906138c9565b6007600201819055505b60076004015481600301541015610a245760008160030181905550610a42565b6007600401548160030154610a3991906138c9565b81600301819055505b610a6960405180606001604052806025815260200161474160259139600760020154612135565b610a8f6040518060600160405280602881526020016147ed602891398260030154612135565b610b4260405180606001604052806028815260200161484360289139826001018054610aba906136b3565b80601f0160208091040260200160405190810160405280929190818152602001828054610ae6906136b3565b8015610b335780601f10610b0857610100808354040283529160200191610b33565b820191906000526020600020905b815481529060010190602001808311610b1657829003601f168201915b505050505083600301546121d1565b7f32bd565ee3f2cb5ddd742bbecd6048d3e9abe90b3827a40c2b72d232e71e3c9d336007600201548360030154604051610b7e939291906138fd565b60405180910390a15050565b610ba5838383604051806020016040528060008152506110c9565b505050565b6000806002600084815260200190815260200160002060009054906101000a900473ffffffffffffffffffffffffffffffffffffffff169050600073ffffffffffffffffffffffffffffffffffffffff168173ffffffffffffffffffffffffffffffffffffffff1603610c52576040517f08c379a0000000000000000000000000000000000000000000000000000000008152600401610c4990613980565b60405180910390fd5b80915050919050565b60008073ffffffffffffffffffffffffffffffffffffffff168273ffffffffffffffffffffffffffffffffffffffff1603610ccb576040517f08c379a0000000000000000000000000000000000000000000000000000000008152600401610cc290613a12565b60405180910390fd5b600360008373ffffffffffffffffffffffffffffffffffffffff1673ffffffffffffffffffffffffffffffffffffffff168152602001908152602001600020549050919050565b600d6020528060005260406000206000915090505481565b6060600e805480602002602001604051908101604052809291908181526020016000905b82821015610ecc57838290600052602060002090600602016040518060c001604052908160008201548152602001600182018054610d8b906136b3565b80601f0160208091040260200160405190810160405280929190818152602001828054610db7906136b3565b8015610e045780601f10610dd957610100808354040283529160200191610e04565b820191906000526020600020905b815481529060010190602001808311610de757829003601f168201915b50505050508152602001600282018054610e1d906136b3565b80601f0160208091040260200160405190810160405280929190818152602001828054610e49906136b3565b8015610e965780601f10610e6b57610100808354040283529160200191610e96565b820191906000526020600020905b815481529060010190602001808311610e7957829003601f168201915b50505050508152602001600382015481526020016004820154815260200160058201548152505081526020019060010190610d4e565b50505050905090565b606060018054610ee4906136b3565b80601f0160208091040260200160405190810160405280929190818152602001828054610f10906136b3565b8015610f5d5780601f10610f3257610100808354040283529160200191610f5d565b820191906000526020600020905b815481529060010190602001808311610f4057829003601f168201915b5050505050905090565b610f79610f72611cd7565b8383612270565b5050565b600c602052806000526040600020600091509050806000015490806001018054610fa6906136b3565b80601f0160208091040260200160405190810160405280929190818152602001828054610fd2906136b3565b801561101f5780601f10610ff45761010080835404028352916020019161101f565b820191906000526020600020905b81548152906001019060200180831161100257829003601f168201915b505050505090806002018054611034906136b3565b80601f0160208091040260200160405190810160405280929190818152602001828054611060906136b3565b80156110ad5780601f10611082576101008083540402835291602001916110ad565b820191906000526020600020905b81548152906001019060200180831161109057829003601f168201915b5050505050908060030154908060040154908060050154905086565b6110da6110d4611cd7565b83611d98565b611119576040517f08c379a00000000000000000000000000000000000000000000000000000000081526004016111109061387a565b60405180910390fd5b611125848484846123dc565b50505050565b611133612c77565b60076040518060a0016040529081600082018054611150906136b3565b80601f016020809104026020016040519081016040528092919081815260200182805461117c906136b3565b80156111c95780601f1061119e576101008083540402835291602001916111c9565b820191906000526020600020905b8154815290600101906020018083116111ac57829003601f168201915b505050505081526020016001820180546111e2906136b3565b80601f016020809104026020016040519081016040528092919081815260200182805461120e906136b3565b801561125b5780601f106112305761010080835404028352916020019161125b565b820191906000526020600020905b81548152906001019060200180831161123e57829003601f168201915b505050505081526020016002820154815260200160038201548152602001600482015481525050905090565b6007806000018054611298906136b3565b80601f01602080910402602001604051908101604052809291908181526020018280546112c4906136b3565b80156113115780601f106112e657610100808354040283529160200191611311565b820191906000526020600020905b8154815290600101906020018083116112f457829003601f168201915b505050505090806001018054611326906136b3565b80601f0160208091040260200160405190810160405280929190818152602001828054611352906136b3565b801561139f5780601f106113745761010080835404028352916020019161139f565b820191906000526020600020905b81548152906001019060200180831161138257829003601f168201915b5050505050908060020154908060030154908060040154905085565b60606000600c60008481526020019081526020016000206040518060c0016040529081600082015481526020016001820180546113f7906136b3565b80601f0160208091040260200160405190810160405280929190818152602001828054611423906136b3565b80156114705780601f1061144557610100808354040283529160200191611470565b820191906000526020600020905b81548152906001019060200180831161145357829003601f168201915b50505050508152602001600282018054611489906136b3565b80601f01602080910402602001604051908101604052809291908181526020018280546114b5906136b3565b80156115025780601f106114d757610100808354040283529160200191611502565b820191906000526020600020905b8154815290600101906020018083116114e557829003601f168201915b5050505050815260200160038201548152602001600482015481526020016005820154815250509050600061153a8260600151612438565b9050600061154b8360800151612438565b9050600061155c8460a00151612438565b905060006115a2856020015161157189612438565b876040015187878760405160200161158e96959493929190613cf4565b604051602081830303815290604052612598565b90506000816040516020016115b79190613de5565b6040516020818303038152906040529050809650505050505050919050565b6115de612ca6565b6000600d60003373ffffffffffffffffffffffffffffffffffffffff1673ffffffffffffffffffffffffffffffffffffffff168152602001908152602001600020549050600081111561179d57600c60008281526020019081526020016000206040518060c001604052908160008201548152602001600182018054611663906136b3565b80601f016020809104026020016040519081016040528092919081815260200182805461168f906136b3565b80156116dc5780601f106116b1576101008083540402835291602001916116dc565b820191906000526020600020905b8154815290600101906020018083116116bf57829003601f168201915b505050505081526020016002820180546116f5906136b3565b80601f0160208091040260200160405190810160405280929190818152602001828054611721906136b3565b801561176e5780601f106117435761010080835404028352916020019161176e565b820191906000526020600020905b81548152906001019060200180831161175157829003601f168201915b5050505050815260200160038201548152602001600482015481526020016005820154815250509150506117ab565b6117a5612ca6565b80925050505b90565b6000600560008473ffffffffffffffffffffffffffffffffffffffff1673ffffffffffffffffffffffffffffffffffffffff16815260200190815260200160002060008373ffffffffffffffffffffffffffffffffffffffff1673ffffffffffffffffffffffffffffffffffffffff16815260200190815260200160002060009054906101000a900460ff16905092915050565b600061184e600661272f565b905061185a338261273d565b6040518060c00160405280838152602001600e848154811061187f5761187e613e07565b5b9060005260206000209060060201600101805461189b906136b3565b80601f01602080910402602001604051908101604052809291908181526020018280546118c7906136b3565b80156119145780601f106118e957610100808354040283529160200191611914565b820191906000526020600020905b8154815290600101906020018083116118f757829003601f168201915b50505050508152602001600e848154811061193257611931613e07565b5b9060005260206000209060060201600201805461194e906136b3565b80601f016020809104026020016040519081016040528092919081815260200182805461197a906136b3565b80156119c75780601f1061199c576101008083540402835291602001916119c7565b820191906000526020600020905b8154815290600101906020018083116119aa57829003601f168201915b50505050508152602001600e84815481106119e5576119e4613e07565b5b9060005260206000209060060201600301548152602001600e8481548110611a1057611a0f613e07565b5b9060005260206000209060060201600401548152602001600e8481548110611a3b57611a3a613e07565b5b906000526020600020906006020160050154815250600c6000838152602001908152602001600020600082015181600001556020820151816001019081611a829190613fe2565b506040820151816002019081611a989190613fe2565b50606082015181600301556080820151816004015560a08201518160050155905050611add6040518060600160405280602e8152602001614815602e9139828461275b565b80600d60003373ffffffffffffffffffffffffffffffffffffffff1673ffffffffffffffffffffffffffffffffffffffff16815260200190815260200160002081905550611b2b6006611c0c565b7f4bc303fd457a97b4691b9af582ce71868a3d258638c8d4f8c60988a0f0bfb8cd338284604051611b5e939291906138fd565b60405180910390a15050565b611c0684848484604051602401611b8494939291906140b4565b6040516020818303038152906040527f5d1a971a000000000000000000000000000000000000000000000000000000007bffffffffffffffffffffffffffffffffffffffffffffffffffffffff19166020820180517bffffffffffffffffffffffffffffffffffffffffffffffffffffffff83818316178352505050506127fa565b50505050565b6001816000016000828254019250508190555050565b60007f01ffc9a7000000000000000000000000000000000000000000000000000000007bffffffffffffffffffffffffffffffffffffffffffffffffffffffff1916827bffffffffffffffffffffffffffffffffffffffffffffffffffffffff1916149050919050565b611c9581612823565b611cd4576040517f08c379a0000000000000000000000000000000000000000000000000000000008152600401611ccb90613980565b60405180910390fd5b50565b600033905090565b816004600083815260200190815260200160002060006101000a81548173ffffffffffffffffffffffffffffffffffffffff021916908373ffffffffffffffffffffffffffffffffffffffff160217905550808273ffffffffffffffffffffffffffffffffffffffff16611d5283610baa565b73ffffffffffffffffffffffffffffffffffffffff167f8c5be1e5ebec7d5bd14f71427d1e84f3dd0314c0f7b2291e5b200ac8c7c3b92560405160405180910390a45050565b600080611da483610baa565b90508073ffffffffffffffffffffffffffffffffffffffff168473ffffffffffffffffffffffffffffffffffffffff161480611de65750611de581856117ae565b5b80611e2457508373ffffffffffffffffffffffffffffffffffffffff16611e0c8461059f565b73ffffffffffffffffffffffffffffffffffffffff16145b91505092915050565b8273ffffffffffffffffffffffffffffffffffffffff16611e4d82610baa565b73ffffffffffffffffffffffffffffffffffffffff1614611ea3576040517f08c379a0000000000000000000000000000000000000000000000000000000008152600401611e9a90614180565b60405180910390fd5b600073ffffffffffffffffffffffffffffffffffffffff168273ffffffffffffffffffffffffffffffffffffffff1603611f12576040517f08c379a0000000000000000000000000000000000000000000000000000000008152600401611f0990614212565b60405180910390fd5b611f1d83838361288f565b611f28600082611cdf565b6001600360008573ffffffffffffffffffffffffffffffffffffffff1673ffffffffffffffffffffffffffffffffffffffff1681526020019081526020016000206000828254611f7891906138c9565b925050819055506001600360008473ffffffffffffffffffffffffffffffffffffffff1673ffffffffffffffffffffffffffffffffffffffff1681526020019081526020016000206000828254611fcf9190614232565b92505081905550816002600083815260200190815260200160002060006101000a81548173ffffffffffffffffffffffffffffffffffffffff021916908373ffffffffffffffffffffffffffffffffffffffff160217905550808273ffffffffffffffffffffffffffffffffffffffff168473ffffffffffffffffffffffffffffffffffffffff167fddf252ad1be2c89b69c2b068fc378daa952ba7f163c4a11628f55a4df523b3ef60405160405180910390a461208e838383612894565b505050565b61212f848484846040516024016120ad9493929190614266565b6040516020818303038152906040527ff45d7d2c000000000000000000000000000000000000000000000000000000007bffffffffffffffffffffffffffffffffffffffffffffffffffffffff19166020820180517bffffffffffffffffffffffffffffffffffffffffffffffffffffffff83818316178352505050506127fa565b50505050565b6121cd828260405160240161214b9291906142b9565b6040516020818303038152906040527fb60e72cc000000000000000000000000000000000000000000000000000000007bffffffffffffffffffffffffffffffffffffffffffffffffffffffff19166020820180517bffffffffffffffffffffffffffffffffffffffffffffffffffffffff83818316178352505050506127fa565b5050565b61226b8383836040516024016121e9939291906142e9565b6040516020818303038152906040527f5821efa1000000000000000000000000000000000000000000000000000000007bffffffffffffffffffffffffffffffffffffffffffffffffffffffff19166020820180517bffffffffffffffffffffffffffffffffffffffffffffffffffffffff83818316178352505050506127fa565b505050565b8173ffffffffffffffffffffffffffffffffffffffff168373ffffffffffffffffffffffffffffffffffffffff16036122de576040517f08c379a00000000000000000000000000000000000000000000000000000000081526004016122d59061437a565b60405180910390fd5b80600560008573ffffffffffffffffffffffffffffffffffffffff1673ffffffffffffffffffffffffffffffffffffffff16815260200190815260200160002060008473ffffffffffffffffffffffffffffffffffffffff1673ffffffffffffffffffffffffffffffffffffffff16815260200190815260200160002060006101000a81548160ff0219169083151502179055508173ffffffffffffffffffffffffffffffffffffffff168373ffffffffffffffffffffffffffffffffffffffff167f17307eab39ab6107e8899845ad3d59bd9653f200f220920489ca2b5937696c31836040516123cf9190612d90565b60405180910390a3505050565b6123e7848484611e2d565b6123f384848484612899565b612432576040517f08c379a00000000000000000000000000000000000000000000000000000000081526004016124299061440c565b60405180910390fd5b50505050565b60606000820361247f576040518060400160405280600181526020017f30000000000000000000000000000000000000000000000000000000000000008152509050612593565b600082905060005b600082146124b157808061249a9061442c565b915050600a826124aa91906144a3565b9150612487565b60008167ffffffffffffffff8111156124cd576124cc6132e4565b5b6040519080825280601f01601f1916602001820160405280156124ff5781602001600182028036833780820191505090505b5090505b6000851461258c5760018261251891906138c9565b9150600a8561252791906144d4565b60306125339190614232565b60f81b81838151811061254957612548613e07565b5b60200101907effffffffffffffffffffffffffffffffffffffffffffffffffffffffffffff1916908160001a905350600a8561258591906144a3565b9450612503565b8093505050505b919050565b6060600082519050600081036125c0576040518060200160405280600081525091505061272a565b600060036002836125d19190614232565b6125db91906144a3565b60046125e79190614505565b905060006020826125f89190614232565b67ffffffffffffffff811115612611576126106132e4565b5b6040519080825280601f01601f1916602001820160405280156126435781602001600182028036833780820191505090505b50905060006040518060600160405280604081526020016147ad604091399050600181016020830160005b868110156126e75760038101905062ffffff818a015116603f8160121c168401518060081b905060ff603f83600c1c1686015116810190508060081b905060ff603f8360061c1686015116810190508060081b905060ff603f831686015116810190508060e01b9050808452600484019350505061266e565b50600386066001811461270157600281146127115761271c565b613d3d60f01b600283035261271c565b603d60f81b60018303525b508484525050819450505050505b919050565b600081600001549050919050565b612757828260405180602001604052806000815250612a20565b5050565b6127f583838360405160240161277393929190614547565b6040516020818303038152906040527fca47c4eb000000000000000000000000000000000000000000000000000000007bffffffffffffffffffffffffffffffffffffffffffffffffffffffff19166020820180517bffffffffffffffffffffffffffffffffffffffffffffffffffffffff83818316178352505050506127fa565b505050565b60008151905060006a636f6e736f6c652e6c6f679050602083016000808483855afa5050505050565b60008073ffffffffffffffffffffffffffffffffffffffff166002600084815260200190815260200160002060009054906101000a900473ffffffffffffffffffffffffffffffffffffffff1673ffffffffffffffffffffffffffffffffffffffff1614159050919050565b505050565b505050565b60006128ba8473ffffffffffffffffffffffffffffffffffffffff16612a7b565b15612a13578373ffffffffffffffffffffffffffffffffffffffff1663150b7a026128e3611cd7565b8786866040518563ffffffff1660e01b815260040161290594939291906145da565b6020604051808303816000875af192505050801561294157506040513d601f19601f8201168201806040525081019061293e919061463b565b60015b6129c3573d8060008114612971576040519150601f19603f3d011682016040523d82523d6000602084013e612976565b606091505b5060008151036129bb576040517f08c379a00000000000000000000000000000000000000000000000000000000081526004016129b29061440c565b60405180910390fd5b805181602001fd5b63150b7a0260e01b7bffffffffffffffffffffffffffffffffffffffffffffffffffffffff1916817bffffffffffffffffffffffffffffffffffffffffffffffffffffffff191614915050612a18565b600190505b949350505050565b612a2a8383612a9e565b612a376000848484612899565b612a76576040517f08c379a0000000000000000000000000000000000000000000000000000000008152600401612a6d9061440c565b60405180910390fd5b505050565b6000808273ffffffffffffffffffffffffffffffffffffffff163b119050919050565b600073ffffffffffffffffffffffffffffffffffffffff168273ffffffffffffffffffffffffffffffffffffffff1603612b0d576040517f08c379a0000000000000000000000000000000000000000000000000000000008152600401612b04906146b4565b60405180910390fd5b612b1681612823565b15612b56576040517f08c379a0000000000000000000000000000000000000000000000000000000008152600401612b4d90614720565b60405180910390fd5b612b626000838361288f565b6001600360008473ffffffffffffffffffffffffffffffffffffffff1673ffffffffffffffffffffffffffffffffffffffff1681526020019081526020016000206000828254612bb29190614232565b92505081905550816002600083815260200190815260200160002060006101000a81548173ffffffffffffffffffffffffffffffffffffffff021916908373ffffffffffffffffffffffffffffffffffffffff160217905550808273ffffffffffffffffffffffffffffffffffffffff16600073ffffffffffffffffffffffffffffffffffffffff167fddf252ad1be2c89b69c2b068fc378daa952ba7f163c4a11628f55a4df523b3ef60405160405180910390a4612c7360008383612894565b5050565b6040518060a0016040528060608152602001606081526020016000815260200160008152602001600081525090565b6040518060c001604052806000815260200160608152602001606081526020016000815260200160008152602001600081525090565b6000604051905090565b600080fd5b600080fd5b60007fffffffff0000000000000000000000000000000000000000000000000000000082169050919050565b612d2581612cf0565b8114612d3057600080fd5b50565b600081359050612d4281612d1c565b92915050565b600060208284031215612d5e57612d5d612ce6565b5b6000612d6c84828501612d33565b91505092915050565b60008115159050919050565b612d8a81612d75565b82525050565b6000602082019050612da56000830184612d81565b92915050565b600081519050919050565b600082825260208201905092915050565b60005b83811015612de5578082015181840152602081019050612dca565b60008484015250505050565b6000601f19601f8301169050919050565b6000612e0d82612dab565b612e178185612db6565b9350612e27818560208601612dc7565b612e3081612df1565b840191505092915050565b60006020820190508181036000830152612e558184612e02565b905092915050565b6000819050919050565b612e7081612e5d565b8114612e7b57600080fd5b50565b600081359050612e8d81612e67565b92915050565b600060208284031215612ea957612ea8612ce6565b5b6000612eb784828501612e7e565b91505092915050565b600073ffffffffffffffffffffffffffffffffffffffff82169050919050565b6000612eeb82612ec0565b9050919050565b612efb81612ee0565b82525050565b6000602082019050612f166000830184612ef2565b92915050565b612f2581612ee0565b8114612f3057600080fd5b50565b600081359050612f4281612f1c565b92915050565b60008060408385031215612f5f57612f5e612ce6565b5b6000612f6d85828601612f33565b9250506020612f7e85828601612e7e565b9150509250929050565b600080600060608486031215612fa157612fa0612ce6565b5b6000612faf86828701612f33565b9350506020612fc086828701612f33565b9250506040612fd186828701612e7e565b9150509250925092565b600060208284031215612ff157612ff0612ce6565b5b6000612fff84828501612f33565b91505092915050565b61301181612e5d565b82525050565b600060208201905061302c6000830184613008565b92915050565b600081519050919050565b600082825260208201905092915050565b6000819050602082019050919050565b61306781612e5d565b82525050565b600082825260208201905092915050565b600061308982612dab565b613093818561306d565b93506130a3818560208601612dc7565b6130ac81612df1565b840191505092915050565b600060c0830160008301516130cf600086018261305e565b50602083015184820360208601526130e7828261307e565b91505060408301518482036040860152613101828261307e565b9150506060830151613116606086018261305e565b506080830151613129608086018261305e565b5060a083015161313c60a086018261305e565b508091505092915050565b600061315383836130b7565b905092915050565b6000602082019050919050565b600061317382613032565b61317d818561303d565b93508360208202850161318f8561304e565b8060005b858110156131cb57848403895281516131ac8582613147565b94506131b78361315b565b925060208a01995050600181019050613193565b50829750879550505050505092915050565b600060208201905081810360008301526131f78184613168565b905092915050565b61320881612d75565b811461321357600080fd5b50565b600081359050613225816131ff565b92915050565b6000806040838503121561324257613241612ce6565b5b600061325085828601612f33565b925050602061326185828601613216565b9150509250929050565b600060c0820190506132806000830189613008565b81810360208301526132928188612e02565b905081810360408301526132a68187612e02565b90506132b56060830186613008565b6132c26080830185613008565b6132cf60a0830184613008565b979650505050505050565b600080fd5b600080fd5b7f4e487b7100000000000000000000000000000000000000000000000000000000600052604160045260246000fd5b61331c82612df1565b810181811067ffffffffffffffff8211171561333b5761333a6132e4565b5b80604052505050565b600061334e612cdc565b905061335a8282613313565b919050565b600067ffffffffffffffff82111561337a576133796132e4565b5b61338382612df1565b9050602081019050919050565b82818337600083830152505050565b60006133b26133ad8461335f565b613344565b9050828152602081018484840111156133ce576133cd6132df565b5b6133d9848285613390565b509392505050565b600082601f8301126133f6576133f56132da565b5b813561340684826020860161339f565b91505092915050565b6000806000806080858703121561342957613428612ce6565b5b600061343787828801612f33565b945050602061344887828801612f33565b935050604061345987828801612e7e565b925050606085013567ffffffffffffffff81111561347a57613479612ceb565b5b613486878288016133e1565b91505092959194509250565b600060a08301600083015184820360008601526134af828261307e565b915050602083015184820360208601526134c9828261307e565b91505060408301516134de604086018261305e565b5060608301516134f1606086018261305e565b506080830151613504608086018261305e565b508091505092915050565b600060208201905081810360008301526135298184613492565b905092915050565b600060a082019050818103600083015261354b8188612e02565b9050818103602083015261355f8187612e02565b905061356e6040830186613008565b61357b6060830185613008565b6135886080830184613008565b9695505050505050565b600060c0830160008301516135aa600086018261305e565b50602083015184820360208601526135c2828261307e565b915050604083015184820360408601526135dc828261307e565b91505060608301516135f1606086018261305e565b506080830151613604608086018261305e565b5060a083015161361760a086018261305e565b508091505092915050565b6000602082019050818103600083015261363c8184613592565b905092915050565b6000806040838503121561365b5761365a612ce6565b5b600061366985828601612f33565b925050602061367a85828601612f33565b9150509250929050565b7f4e487b7100000000000000000000000000000000000000000000000000000000600052602260045260246000fd5b600060028204905060018216806136cb57607f821691505b6020821081036136de576136dd613684565b5b50919050565b7f4552433732313a20617070726f76616c20746f2063757272656e74206f776e6560008201527f7200000000000000000000000000000000000000000000000000000000000000602082015250565b6000613740602183612db6565b915061374b826136e4565b604082019050919050565b6000602082019050818103600083015261376f81613733565b9050919050565b7f4552433732313a20617070726f76652063616c6c6572206973206e6f7420746f60008201527f6b656e206f776e6572206e6f7220617070726f76656420666f7220616c6c0000602082015250565b60006137d2603e83612db6565b91506137dd82613776565b604082019050919050565b60006020820190508181036000830152613801816137c5565b9050919050565b7f4552433732313a2063616c6c6572206973206e6f7420746f6b656e206f776e6560008201527f72206e6f7220617070726f766564000000000000000000000000000000000000602082015250565b6000613864602e83612db6565b915061386f82613808565b604082019050919050565b6000602082019050818103600083015261389381613857565b9050919050565b7f4e487b7100000000000000000000000000000000000000000000000000000000600052601160045260246000fd5b60006138d482612e5d565b91506138df83612e5d565b92508282039050818111156138f7576138f661389a565b5b92915050565b60006060820190506139126000830186612ef2565b61391f6020830185613008565b61392c6040830184613008565b949350505050565b7f4552433732313a20696e76616c696420746f6b656e2049440000000000000000600082015250565b600061396a601883612db6565b915061397582613934565b602082019050919050565b600060208201905081810360008301526139998161395d565b9050919050565b7f4552433732313a2061646472657373207a65726f206973206e6f74206120766160008201527f6c6964206f776e65720000000000000000000000000000000000000000000000602082015250565b60006139fc602983612db6565b9150613a07826139a0565b604082019050919050565b60006020820190508181036000830152613a2b816139ef565b9050919050565b600081905092915050565b7f7b226e616d65223a202200000000000000000000000000000000000000000000600082015250565b6000613a73600a83613a32565b9150613a7e82613a3d565b600a82019050919050565b6000613a9482612dab565b613a9e8185613a32565b9350613aae818560208601612dc7565b80840191505092915050565b7f202d2d204e465420233a20000000000000000000000000000000000000000000600082015250565b6000613af0600b83613a32565b9150613afb82613aba565b600b82019050919050565b7f222c20226465736372697074696f6e223a2022416e2065706963204e4654222c60008201527f2022696d616765223a2022697066733a2f2f0000000000000000000000000000602082015250565b6000613b62603283613a32565b9150613b6d82613b06565b603282019050919050565b7f222c202261747472696275746573223a205b207b202274726169745f7479706560008201527f223a20224865616c746820506f696e7473222c202276616c7565223a20000000602082015250565b6000613bd4603d83613a32565b9150613bdf82613b78565b603d82019050919050565b7f2c20226d61785f76616c7565223a000000000000000000000000000000000000600082015250565b6000613c20600e83613a32565b9150613c2b82613bea565b600e82019050919050565b7f7d2c207b202274726169745f74797065223a202241747461636b2044616d616760008201527f65222c202276616c7565223a2000000000000000000000000000000000000000602082015250565b6000613c92602d83613a32565b9150613c9d82613c36565b602d82019050919050565b7f7d205d7d00000000000000000000000000000000000000000000000000000000600082015250565b6000613cde600483613a32565b9150613ce982613ca8565b600482019050919050565b6000613cff82613a66565b9150613d0b8289613a89565b9150613d1682613ae3565b9150613d228288613a89565b9150613d2d82613b55565b9150613d398287613a89565b9150613d4482613bc7565b9150613d508286613a89565b9150613d5b82613c13565b9150613d678285613a89565b9150613d7282613c85565b9150613d7e8284613a89565b9150613d8982613cd1565b9150819050979650505050505050565b7f646174613a6170706c69636174696f6e2f6a736f6e3b6261736536342c000000600082015250565b6000613dcf601d83613a32565b9150613dda82613d99565b601d82019050919050565b6000613df082613dc2565b9150613dfc8284613a89565b915081905092915050565b7f4e487b7100000000000000000000000000000000000000000000000000000000600052603260045260246000fd5b60008190508160005260206000209050919050565b60006020601f8301049050919050565b600082821b905092915050565b600060088302613e987fffffffffffffffffffffffffffffffffffffffffffffffffffffffffffffffff82613e5b565b613ea28683613e5b565b95508019841693508086168417925050509392505050565b6000819050919050565b6000613edf613eda613ed584612e5d565b613eba565b612e5d565b9050919050565b6000819050919050565b613ef983613ec4565b613f0d613f0582613ee6565b848454613e68565b825550505050565b600090565b613f22613f15565b613f2d818484613ef0565b505050565b5b81811015613f5157613f46600082613f1a565b600181019050613f33565b5050565b601f821115613f9657613f6781613e36565b613f7084613e4b565b81016020851015613f7f578190505b613f93613f8b85613e4b565b830182613f32565b50505b505050565b600082821c905092915050565b6000613fb960001984600802613f9b565b1980831691505092915050565b6000613fd28383613fa8565b9150826002028217905092915050565b613feb82612dab565b67ffffffffffffffff811115614004576140036132e4565b5b61400e82546136b3565b614019828285613f55565b600060209050601f83116001811461404c576000841561403a578287015190505b6140448582613fc6565b8655506140ac565b601f19841661405a86613e36565b60005b828110156140825784890151825560018201915060208501945060208101905061405d565b8683101561409f578489015161409b601f891682613fa8565b8355505b6001600288020188555050505b505050505050565b600060808201905081810360008301526140ce8187612e02565b905081810360208301526140e28186612e02565b90506140f16040830185613008565b81810360608301526141038184612e02565b905095945050505050565b7f4552433732313a207472616e736665722066726f6d20696e636f72726563742060008201527f6f776e6572000000000000000000000000000000000000000000000000000000602082015250565b600061416a602583612db6565b91506141758261410e565b604082019050919050565b600060208201905081810360008301526141998161415d565b9050919050565b7f4552433732313a207472616e7366657220746f20746865207a65726f2061646460008201527f7265737300000000000000000000000000000000000000000000000000000000602082015250565b60006141fc602483612db6565b9150614207826141a0565b604082019050919050565b6000602082019050818103600083015261422b816141ef565b9050919050565b600061423d82612e5d565b915061424883612e5d565b92508282019050808211156142605761425f61389a565b5b92915050565b600060808201905081810360008301526142808187612e02565b905081810360208301526142948186612e02565b90506142a36040830185613008565b6142b06060830184613008565b95945050505050565b600060408201905081810360008301526142d38185612e02565b90506142e26020830184613008565b9392505050565b600060608201905081810360008301526143038186612e02565b905081810360208301526143178185612e02565b90506143266040830184613008565b949350505050565b7f4552433732313a20617070726f766520746f2063616c6c657200000000000000600082015250565b6000614364601983612db6565b915061436f8261432e565b602082019050919050565b6000602082019050818103600083015261439381614357565b9050919050565b7f4552433732313a207472616e7366657220746f206e6f6e20455243373231526560008201527f63656976657220696d706c656d656e7465720000000000000000000000000000602082015250565b60006143f6603283612db6565b91506144018261439a565b604082019050919050565b60006020820190508181036000830152614425816143e9565b9050919050565b600061443782612e5d565b91507fffffffffffffffffffffffffffffffffffffffffffffffffffffffffffffffff82036144695761446861389a565b5b600182019050919050565b7f4e487b7100000000000000000000000000000000000000000000000000000000600052601260045260246000fd5b60006144ae82612e5d565b91506144b983612e5d565b9250826144c9576144c8614474565b5b828204905092915050565b60006144df82612e5d565b91506144ea83612e5d565b9250826144fa576144f9614474565b5b828206905092915050565b600061451082612e5d565b915061451b83612e5d565b925082820261452981612e5d565b915082820484148315176145405761453f61389a565b5b5092915050565b600060608201905081810360008301526145618186612e02565b90506145706020830185613008565b61457d6040830184613008565b949350505050565b600081519050919050565b600082825260208201905092915050565b60006145ac82614585565b6145b68185614590565b93506145c6818560208601612dc7565b6145cf81612df1565b840191505092915050565b60006080820190506145ef6000830187612ef2565b6145fc6020830186612ef2565b6146096040830185613008565b818103606083015261461b81846145a1565b905095945050505050565b60008151905061463581612d1c565b92915050565b60006020828403121561465157614650612ce6565b5b600061465f84828501614626565b91505092915050565b7f4552433732313a206d696e7420746f20746865207a65726f2061646472657373600082015250565b600061469e602083612db6565b91506146a982614668565b602082019050919050565b600060208201905081810360008301526146cd81614691565b9050919050565b7f4552433732313a20746f6b656e20616c7265616479206d696e74656400000000600082015250565b600061470a601c83612db6565b9150614715826146d4565b602082019050919050565b60006020820190508181036000830152614739816146fd565b905091905056fe506c617965722061747461636b656420626f73732e204e657720626f73732068703a2025730a506c6179657220636861657261637465722025732061626f757420746f2061747461636b2e486173202f7720257320487020616e642025732041747461636b2044616d6167654142434445464748494a4b4c4d4e4f505152535455565758595a6162636465666768696a6b6c6d6e6f707172737475767778797a303132333435363738392b2f426f73732061747461636b656420706c617965722e204e657720706c617965722068703a2025730a4d696e746564204e465420772f20746f6b656e496420257320616e6420636861726163746572496e646578202573426f73732061747461636b206f6e20706c61796572202573202e4e657720506c617965722048703aa2646970667358221220317d624d8193d4e86025ebdaa4671b7452cb30fc804a8c4d10aa78dffe63fa4c64736f6c63430008110033446f6e6520696e697469616c697a696e6720257320772f2048502025732c20696d67202573446f6e6520696e697469616c697a696e6720626f737320257320772f2048502025732c20696d6720202573",
  "linkReferences": {},
  "deployedLinkReferences": {}
}